:060000000A128A11F02F24
:100F3000FD346034DA34F2346634B634BE34E0342E
:100F4000FE34F6347E088A007F088200A2270A1247
:100F50008A118000840A04087D0603190034FF0A00
:100F60000319FE0AA62F203084002B30F00004085D
:100F7000F1000A30F2007008840083130008F300C7
:100F8000F00A7108840073088000F10AF20BBB2F8D
:100F900083120313AA01831603138601831203131A
:100FA00086012A08203E840083130008860004304E
:100FB000F2008E30F1001230F000F00BDD2FF10B5B
:100FC000DD2FF20BDD2F00000130F00070088312DE
:100FD0000313AA070A302A06031DD12FAA01D12F15
:100FE00083133530FD000730FE009830FF002B30B2
:100FF00084000A128A11A62783010A128A11B32FCC
:02400E00713F00
:00000001FF
